{"abi":[{"type":"constructor","inputs":[{"name":"name_","type":"string","internalType":"string"},{"name":"symbol_","type":"string","internalType":"string"},{"name":"initialSupply_","type":"uint256","internalType":"uint256"}],"stateMutability":"nonpayable"},{"type":"function","name":"allowance","inputs":[{"name":"owner","type":"address","internalType":"address"},{"name":"spender","type":"address","internalType":"address"}],"outputs":[{"name":"","type":"uint256","internalType":"uint256"}],"stateMutability":"view"},{"type":"function","name":"approve","inputs":[{"name":"spender","type":"address","internalType":"address"},{"name":"value","type":"uint256","internalType":"uint256"}],"outputs":[{"name":"","type":"bool","internalType":"bool"}],"stateMutability":"nonpayable"},{"type":"function","name":"balanceOf","inputs":[{"name":"account","type":"address","internalType":"address"}],"outputs":[{"name":"","type":"uint256","internalType":"uint256"}],"stateMutability":"view"},{"type":"function","name":"decimals","inputs":[],"outputs":[{"name":"","type":"uint8","internalType":"uint8"}],"stateMutability":"view"},{"type":"function","name":"faucet","inputs":[{"name":"amount","type":"uint256","internalType":"uint256"}],"outputs":[],"stateMutability":"nonpayable"},{"type":"function","name":"name","inputs":[],"outputs":[{"name":"","type":"string","internalType":"string"}],"stateMutability":"view"},{"type":"function","name":"symbol","inputs":[],"outputs":[{"name":"","type":"string","internalType":"string"}],"stateMutability":"view"},{"type":"function","name":"totalSupply","inputs":[],"outputs":[{"name":"","type":"uint256","internalType":"uint256"}],"stateMutability":"view"},{"type":"function","name":"transfer","inputs":[{"name":"to","type":"address","internalType":"address"},{"name":"value","type":"uint256","internalType":"uint256"}],"outputs":[{"name":"","type":"bool","internalType":"bool"}],"stateMutability":"nonpayable"},{"type":"function","name":"transferFrom","inputs":[{"name":"from","type":"address","internalType":"address"},{"name":"to","type":"address","internalType":"address"},{"name":"value","type":"uint256","internalType":"uint256"}],"outputs":[{"name":"","type":"bool","internalType":"bool"}],"stateMutability":"nonpayable"},{"type":"event","name":"Approval","inputs":[{"name":"owner","type":"address","indexed":true,"internalType":"address"},{"name":"spender","type":"address","indexed":true,"internalType":"address"},{"name":"value","type":"uint256","indexed":false,"internalType":"uint256"}],"anonymous":false},{"type":"event","name":"Transfer","inputs":[{"name":"from","type":"address","indexed":true,"internalType":"address"},{"name":"to","type":"address","indexed":true,"internalType":"address"},{"name":"value","type":"uint256","indexed":false,"internalType":"uint256"}],"anonymous":false},{"type":"error","name":"ERC20InsufficientAllowance","inputs":[{"name":"spender","type":"address","internalType":"address"},{"name":"allowance","type":"uint256","internalType":"uint256"},{"name":"needed","type":"uint256","internalType":"uint256"}]},{"type":"error","name":"ERC20InsufficientBalance","inputs":[{"name":"sender","type":"address","internalType":"address"},{"name":"balance","type":"uint256","internalType":"uint256"},{"name":"needed","type":"uint256","internalType":"uint256"}]},{"type":"error","name":"ERC20InvalidApprover","inputs":[{"name":"approver","type":"address","internalType":"address"}]},{"type":"error","name":"ERC20InvalidReceiver","inputs":[{"name":"receiver","type":"address","internalType":"address"}]},{"type":"error","name":"ERC20InvalidSender","inputs":[{"name":"sender","type":"address","internalType":"address"}]},{"type":"error","name":"ERC20InvalidSpender","inputs":[{"name":"spender","type":"address","internalType":"address"}]}],"bytecode":{"object":"0x608060405234801561000f575f5ffd5b50604051611b95380380611b95833981810160405281019061003191906104b7565b828281600390816100429190610746565b5080600490816100529190610746565b5050506100893361006761009160201b60201c565b600a610073919061097d565b8361007e91906109c7565b61009960201b60201c565b505050610af0565b5f6012905090565b5f73ffffffffffffffffffffffffffffffffffffffff168273ffffffffffffffffffffffffffffffffffffffff1603610109575f6040517fec442f050000000000000000000000000000000000000000000000000000000081526004016101009190610a47565b60405180910390fd5b61011a5f838361011e60201b60201c565b5050565b5f73ffffffffffffffffffffffffffffffffffffffff168373ffffffffffffffffffffffffffffffffffffffff160361016e578060025f8282546101629190610a60565b9250508190555061023c565b5f5f5f8573ffffffffffffffffffffffffffffffffffffffff1673ffffffffffffffffffffffffffffffffffffffff1681526020019081526020015f20549050818110156101f7578381836040517fe450d38c0000000000000000000000000000000000000000000000000000000081526004016101ee93929190610aa2565b60405180910390fd5b8181035f5f8673ffffffffffffffffffffffffffffffffffffffff1673ffffffffffffffffffffffffffffffffffffffff1681526020019081526020015f2081905550505b5f73ffffffffffffffffffffffffffffffffffffffff168273ffffffffffffffffffffffffffffffffffffffff1603610283578060025f82825403925050819055506102cd565b805f5f8473ffffffffffffffffffffffffffffffffffffffff1673ffffffffffffffffffffffffffffffffffffffff1681526020019081526020015f205f82825401925050819055505b8173ffffffffffffffffffffffffffffffffffffffff168373ffffffffffffffffffffffffffffffffffffffff167fddf252ad1be2c89b69c2b068fc378daa952ba7f163c4a11628f55a4df523b3ef8360405161032a9190610ad7565b60405180910390a3505050565b5f604051905090565b5f5ffd5b5f5ffd5b5f5ffd5b5f5ffd5b5f601f19601f8301169050919050565b7f4e487b71000000000000000000000000000000000000000000000000000000005f52604160045260245ffd5b61039682610350565b810181811067ffffffffffffffff821117156103b5576103b4610360565b5b80604052505050565b5f6103c7610337565b90506103d3828261038d565b919050565b5f67ffffffffffffffff8211156103f2576103f1610360565b5b6103fb82610350565b9050602081019050919050565b8281835e5f83830152505050565b5f610428610423846103d8565b6103be565b9050828152602081018484840111156104445761044361034c565b5b61044f848285610408565b509392505050565b5f82601f83011261046b5761046a610348565b5b815161047b848260208601610416565b91505092915050565b5f819050919050565b61049681610484565b81146104a0575f5ffd5b50565b5f815190506104b18161048d565b92915050565b5f5f5f606084860312156104ce576104cd610340565b5b5f84015167ffffffffffffffff8111156104eb576104ea610344565b5b6104f786828701610457565b935050602084015167ffffffffffffffff81111561051857610517610344565b5b61052486828701610457565b9250506040610535868287016104a3565b9150509250925092565b5f81519050919050565b7f4e487b71000000000000000000000000000000000000000000000000000000005f52602260045260245ffd5b5f600282049050600182168061058d57607f821691505b6020821081036105a05761059f610549565b5b50919050565b5f819050815f5260205f209050919050565b5f6020601f8301049050919050565b5f82821b905092915050565b5f600883026106027fffffffffffffffffffffffffffffffffffffffffffffffffffffffffffffffff826105c7565b61060c86836105c7565b95508019841693508086168417925050509392505050565b5f819050919050565b5f61064761064261063d84610484565b610624565b610484565b9050919050565b5f819050919050565b6106608361062d565b61067461066c8261064e565b8484546105d3565b825550505050565b5f5f905090565b61068b61067c565b610696818484610657565b505050565b5b818110156106b9576106ae5f82610683565b60018101905061069c565b5050565b601f8211156106fe576106cf816105a6565b6106d8846105b8565b810160208510156106e7578190505b6106fb6106f3856105b8565b83018261069b565b50505b505050565b5f82821c905092915050565b5f61071e5f1984600802610703565b1980831691505092915050565b5f610736838361070f565b9150826002028217905092915050565b61074f8261053f565b67ffffffffffffffff81111561076857610767610360565b5b6107728254610576565b61077d8282856106bd565b5f60209050601f8311600181146107ae575f841561079c578287015190505b6107a6858261072b565b86555061080d565b601f1984166107bc866105a6565b5f5b828110156107e3578489015182556001820191506020850194506020810190506107be565b8683101561080057848901516107fc601f89168261070f565b8355505b6001600288020188555050505b505050505050565b7f4e487b71000000000000000000000000000000000000000000000000000000005f52601160045260245ffd5b5f8160011c9050919050565b5f5f8291508390505b60018511156108975780860481111561087357610872610815565b5b60018516156108825780820291505b808102905061089085610842565b9450610857565b94509492505050565b5f826108af576001905061096a565b816108bc575f905061096a565b81600181146108d257600281146108dc5761090b565b600191505061096a565b60ff8411156108ee576108ed610815565b5b8360020a91508482111561090557610904610815565b5b5061096a565b5060208310610133831016604e8410600b84101617156109405782820a90508381111561093b5761093a610815565b5b61096a565b61094d848484600161084e565b9250905081840481111561096457610963610815565b5b81810290505b9392505050565b5f60ff82169050919050565b5f61098782610484565b915061099283610971565b92506109bf7fffffffffffffffffffffffffffffffffffffffffffffffffffffffffffffffff84846108a0565b905092915050565b5f6109d182610484565b91506109dc83610484565b92508282026109ea81610484565b91508282048414831517610a0157610a00610815565b5b5092915050565b5f73ffffffffffffffffffffffffffffffffffffffff82169050919050565b5f610a3182610a08565b9050919050565b610a4181610a27565b82525050565b5f602082019050610a5a5f830184610a38565b92915050565b5f610a6a82610484565b9150610a7583610484565b9250828201905080821115610a8d57610a8c610815565b5b92915050565b610a9c81610484565b82525050565b5f606082019050610ab55f830186610a38565b610ac26020830185610a93565b610acf6040830184610a93565b949350505050565b5f602082019050610aea5f830184610a93565b92915050565b61109880610afd5f395ff3fe608060405234801561000f575f5ffd5b506004361061009c575f3560e01c80635791589711610064578063579158971461015a57806370a082311461017657806395d89b41146101a6578063a9059cbb146101c4578063dd62ed3e146101f45761009c565b806306fdde03146100a0578063095ea7b3146100be57806318160ddd146100ee57806323b872dd1461010c578063313ce5671461013c575b5f5ffd5b6100a8610224565b6040516100b59190610b2c565b60405180910390f35b6100d860048036038101906100d39190610bdd565b6102b4565b6040516100e59190610c35565b60405180910390f35b6100f66102d6565b6040516101039190610c5d565b60405180910390f35b61012660048036038101906101219190610c76565b6102df565b6040516101339190610c35565b60405180910390f35b61014461030d565b6040516101519190610ce1565b60405180910390f35b610174600480360381019061016f9190610cfa565b610315565b005b610190600480360381019061018b9190610d25565b610340565b60405161019d9190610c5d565b60405180910390f35b6101ae610385565b6040516101bb9190610b2c565b60405180910390f35b6101de60048036038101906101d99190610bdd565b610415565b6040516101eb9190610c35565b60405180910390f35b61020e60048036038101906102099190610d50565b610437565b60405161021b9190610c5d565b60405180910390f35b60606003805461023390610dbb565b80601f016020809104026020016040519081016040528092919081815260200182805461025f90610dbb565b80156102aa5780601f10610281576101008083540402835291602001916102aa565b820191905f5260205f20905b81548152906001019060200180831161028d57829003601f168201915b5050505050905090565b5f5f6102be6104b9565b90506102cb8185856104c0565b600191505092915050565b5f600254905090565b5f5f6102e96104b9565b90506102f68582856104d2565b610301858585610565565b60019150509392505050565b5f6012905090565b61033d3361032161030d565b600a61032d9190610f47565b836103389190610f91565b610655565b50565b5f5f5f8373ffffffffffffffffffffffffffffffffffffffff1673ffffffffffffffffffffffffffffffffffffffff1681526020019081526020015f20549050919050565b60606004805461039490610dbb565b80601f01602080910402602001604051908101604052809291908181526020018280546103c090610dbb565b801561040b5780601f106103e25761010080835404028352916020019161040b565b820191905f5260205f20905b8154815290600101906020018083116103ee57829003601f168201915b5050505050905090565b5f5f61041f6104b9565b905061042c818585610565565b600191505092915050565b5f60015f8473ffffffffffffffffffffffffffffffffffffffff1673ffffffffffffffffffffffffffffffffffffffff1681526020019081526020015f205f8373ffffffffffffffffffffffffffffffffffffffff1673ffffffffffffffffffffffffffffffffffffffff1681526020019081526020015f2054905092915050565b5f33905090565b6104cd83838360016106d4565b505050565b5f6104dd8484610437565b90507fffffffffffffffffffffffffffffffffffffffffffffffffffffffffffffffff81101561055f5781811015610550578281836040517ffb8f41b200000000000000000000000000000000000000000000000000000000815260040161054793929190610fe1565b60405180910390fd5b61055e84848484035f6106d4565b5b50505050565b5f73ffffffffffffffffffffffffffffffffffffffff168373ffffffffffffffffffffffffffffffffffffffff16036105d5575f6040517f96c6fd1e0000000000000000000000000000000000000000000000000000000081526004016105cc9190611016565b60405180910390fd5b5f73ffffffffffffffffffffffffffffffffffffffff168273ffffffffffffffffffffffffffffffffffffffff1603610645575f6040517fec442f0500000000000000000000000000000000000000000000000000000000815260040161063c9190611016565b60405180910390fd5b6106508383836108a3565b505050565b5f73ffffffffffffffffffffffffffffffffffffffff168273ffffffffffffffffffffffffffffffffffffffff16036106c5575f6040517fec442f050000000000000000000000000000000000000000000000000000000081526004016106bc9190611016565b60405180910390fd5b6106d05f83836108a3565b5050565b5f73ffffffffffffffffffffffffffffffffffffffff168473ffffffffffffffffffffffffffffffffffffffff1603610744575f6040517fe602df0500000000000000000000000000000000000000000000000000000000815260040161073b9190611016565b60405180910390fd5b5f73ffffffffffffffffffffffffffffffffffffffff168373ffffffffffffffffffffffffffffffffffffffff16036107b4575f6040517f94280d620000000000000000000000000000000000000000000000000000000081526004016107ab9190611016565b60405180910390fd5b8160015f8673ffffffffffffffffffffffffffffffffffffffff1673ffffffffffffffffffffffffffffffffffffffff1681526020019081526020015f205f8573ffffffffffffffffffffffffffffffffffffffff1673ffffffffffffffffffffffffffffffffffffffff1681526020019081526020015f2081905550801561089d578273ffffffffffffffffffffffffffffffffffffffff168473ffffffffffffffffffffffffffffffffffffffff167f8c5be1e5ebec7d5bd14f71427d1e84f3dd0314c0f7b2291e5b200ac8c7c3b925846040516108949190610c5d565b60405180910390a35b50505050565b5f73ffffffffffffffffffffffffffffffffffffffff168373ffffffffffffffffffffffffffffffffffffffff16036108f3578060025f8282546108e7919061102f565b925050819055506109c1565b5f5f5f8573ffffffffffffffffffffffffffffffffffffffff1673ffffffffffffffffffffffffffffffffffffffff1681526020019081526020015f205490508181101561097c578381836040517fe450d38c00000000000000000000000000000000000000000000000000000000815260040161097393929190610fe1565b60405180910390fd5b8181035f5f8673ffffffffffffffffffffffffffffffffffffffff1673ffffffffffffffffffffffffffffffffffffffff1681526020019081526020015f2081905550505b5f73ffffffffffffffffffffffffffffffffffffffff168273ffffffffffffffffffffffffffffffffffffffff1603610a08578060025f8282540392505081905550610a52565b805f5f8473ffffffffffffffffffffffffffffffffffffffff1673ffffffffffffffffffffffffffffffffffffffff1681526020019081526020015f205f82825401925050819055505b8173ffffffffffffffffffffffffffffffffffffffff168373ffffffffffffffffffffffffffffffffffffffff167fddf252ad1be2c89b69c2b068fc378daa952ba7f163c4a11628f55a4df523b3ef83604051610aaf9190610c5d565b60405180910390a3505050565b5f81519050919050565b5f82825260208201905092915050565b8281835e5f83830152505050565b5f601f19601f8301169050919050565b5f610afe82610abc565b610b088185610ac6565b9350610b18818560208601610ad6565b610b2181610ae4565b840191505092915050565b5f6020820190508181035f830152610b448184610af4565b905092915050565b5f5ffd5b5f73ffffffffffffffffffffffffffffffffffffffff82169050919050565b5f610b7982610b50565b9050919050565b610b8981610b6f565b8114610b93575f5ffd5b50565b5f81359050610ba481610b80565b92915050565b5f819050919050565b610bbc81610baa565b8114610bc6575f5ffd5b50565b5f81359050610bd781610bb3565b92915050565b5f5f60408385031215610bf357610bf2610b4c565b5b5f610c0085828601610b96565b9250506020610c1185828601610bc9565b9150509250929050565b5f8115159050919050565b610c2f81610c1b565b82525050565b5f602082019050610c485f830184610c26565b92915050565b610c5781610baa565b82525050565b5f602082019050610c705f830184610c4e565b92915050565b5f5f5f60608486031215610c8d57610c8c610b4c565b5b5f610c9a86828701610b96565b9350506020610cab86828701610b96565b9250506040610cbc86828701610bc9565b9150509250925092565b5f60ff82169050919050565b610cdb81610cc6565b82525050565b5f602082019050610cf45f830184610cd2565b92915050565b5f60208284031215610d0f57610d0e610b4c565b5b5f610d1c84828501610bc9565b91505092915050565b5f60208284031215610d3a57610d39610b4c565b5b5f610d4784828501610b96565b91505092915050565b5f5f60408385031215610d6657610d65610b4c565b5b5f610d7385828601610b96565b9250506020610d8485828601610b96565b9150509250929050565b7f4e487b71000000000000000000000000000000000000000000000000000000005f52602260045260245ffd5b5f6002820490506001821680610dd257607f821691505b602082108103610de557610de4610d8e565b5b50919050565b7f4e487b71000000000000000000000000000000000000000000000000000000005f52601160045260245ffd5b5f8160011c9050919050565b5f5f8291508390505b6001851115610e6d57808604811115610e4957610e48610deb565b5b6001851615610e585780820291505b8081029050610e6685610e18565b9450610e2d565b94509492505050565b5f82610e855760019050610f40565b81610e92575f9050610f40565b8160018114610ea85760028114610eb257610ee1565b6001915050610f40565b60ff841115610ec457610ec3610deb565b5b8360020a915084821115610edb57610eda610deb565b5b50610f40565b5060208310610133831016604e8410600b8410161715610f165782820a905083811115610f1157610f10610deb565b5b610f40565b610f238484846001610e24565b92509050818404811115610f3a57610f39610deb565b5b81810290505b9392505050565b5f610f5182610baa565b9150610f5c83610cc6565b9250610f897fffffffffffffffffffffffffffffffffffffffffffffffffffffffffffffffff8484610e76565b905092915050565b5f610f9b82610baa565b9150610fa683610baa565b9250828202610fb481610baa565b91508282048414831517610fcb57610fca610deb565b5b5092915050565b610fdb81610b6f565b82525050565b5f606082019050610ff45f830186610fd2565b6110016020830185610c4e565b61100e6040830184610c4e565b949350505050565b5f6020820190506110295f830184610fd2565b92915050565b5f61103982610baa565b915061104483610baa565b925082820190508082111561105c5761105b610deb565b5b9291505056fea26469706673582212201bce7cc30350bb920b1ed03525cb2c5a0404ef4aa1babbacdcb50738d7631f0b64736f6c634300081e0033","linkReferences":{}},"methodIdentifiers":{"allowance(address,address)":"dd62ed3e","approve(address,uint256)":"095ea7b3","balanceOf(address)":"70a08231","decimals()":"313ce567","faucet(uint256)":"57915897","name()":"06fdde03","symbol()":"95d89b41","totalSupply()":"18160ddd","transfer(address,uint256)":"a9059cbb","transferFrom(address,address,uint256)":"23b872dd"},"id":24}