{"abi":[{"type":"function","name":"createToken","inputs":[{"name":"name","type":"string","internalType":"string"},{"name":"symbol","type":"string","internalType":"string"},{"name":"supply","type":"uint256","internalType":"uint256"}],"outputs":[],"stateMutability":"nonpayable"},{"type":"function","name":"getMyTokens","inputs":[],"outputs":[{"name":"","type":"tuple[]","internalType":"struct TokenFactory.TokenInfo[]","components":[{"name":"tokenAddress","type":"address","internalType":"address"},{"name":"name","type":"string","internalType":"string"},{"name":"symbol","type":"string","internalType":"string"},{"name":"supply","type":"uint256","internalType":"uint256"}]}],"stateMutability":"view"},{"type":"function","name":"userTokens","inputs":[{"name":"","type":"address","internalType":"address"},{"name":"","type":"uint256","internalType":"uint256"}],"outputs":[{"name":"tokenAddress","type":"address","internalType":"address"},{"name":"name","type":"string","internalType":"string"},{"name":"symbol","type":"string","internalType":"string"},{"name":"supply","type":"uint256","internalType":"uint256"}],"stateMutability":"view"}],"bytecode":{"object":"0x6080604052348015600e575f5ffd5b506129838061001c5f395ff3fe608060405234801561000f575f5ffd5b506004361061003f575f3560e01c80635b060530146100435780635b3b136a1461005f578063f9f411d81461007d575b5f5ffd5b61005d60048036038101906100589190610716565b6100b0565b005b610067610205565b604051610074919061096e565b60405180910390f35b610097600480360381019061009291906109b8565b610419565b6040516100a79493929190610a5c565b60405180910390f35b5f338484846040516100c190610589565b6100ce9493929190610a5c565b604051809103905ff0801580156100e7573d5f5f3e3d5ffd5b5090505f5f3373ffffffffffffffffffffffffffffffffffffffff1673ffffffffffffffffffffffffffffffffffffffff1681526020019081526020015f2060405180608001604052808373ffffffffffffffffffffffffffffffffffffffff16815260200186815260200185815260200184815250908060018154018082558091505060019003905f5260205f2090600402015f909190919091505f820151815f015f6101000a81548173ffffffffffffffffffffffffffffffffffffffff021916908373ffffffffffffffffffffffffffffffffffffffff16021790555060208201518160010190816101dc9190610caa565b5060408201518160020190816101f29190610caa565b5060608201518160030155505050505050565b60605f5f3373ffffffffffffffffffffffffffffffffffffffff1673ffffffffffffffffffffffffffffffffffffffff1681526020019081526020015f20805480602002602001604051908101604052809291908181526020015f905b82821015610410578382905f5260205f2090600402016040518060800160405290815f82015f9054906101000a900473ffffffffffffffffffffffffffffffffffffffff1673ffffffffffffffffffffffffffffffffffffffff1673ffffffffffffffffffffffffffffffffffffffff1681526020016001820180546102e790610ada565b80601f016020809104026020016040519081016040528092919081815260200182805461031390610ada565b801561035e5780601f106103355761010080835404028352916020019161035e565b820191905f5260205f20905b81548152906001019060200180831161034157829003601f168201915b5050505050815260200160028201805461037790610ada565b80601f01602080910402602001604051908101604052809291908181526020018280546103a390610ada565b80156103ee5780601f106103c5576101008083540402835291602001916103ee565b820191905f5260205f20905b8154815290600101906020018083116103d157829003601f168201915b5050505050815260200160038201548152505081526020019060010190610262565b50505050905090565b5f602052815f5260405f208181548110610431575f80fd5b905f5260205f2090600402015f9150915050805f015f9054906101000a900473ffffffffffffffffffffffffffffffffffffffff169080600101805461047690610ada565b80601f01602080910402602001604051908101604052809291908181526020018280546104a290610ada565b80156104ed5780601f106104c4576101008083540402835291602001916104ed565b820191905f5260205f20905b8154815290600101906020018083116104d057829003601f168201915b50505050509080600201805461050290610ada565b80601f016020809104026020016040519081016040528092919081815260200182805461052e90610ada565b80156105795780601f1061055057610100808354040283529160200191610579565b820191905f5260205f20905b81548152906001019060200180831161055c57829003601f168201915b5050505050908060030154905084565b611bd480610d7a83390190565b5f604051905090565b5f5ffd5b5f5ffd5b5f5ffd5b5f5ffd5b5f601f19601f8301169050919050565b7f4e487b71000000000000000000000000000000000000000000000000000000005f52604160045260245ffd5b6105f5826105af565b810181811067ffffffffffffffff82111715610614576106136105bf565b5b80604052505050565b5f610626610596565b905061063282826105ec565b919050565b5f67ffffffffffffffff821115610651576106506105bf565b5b61065a826105af565b9050602081019050919050565b828183375f83830152505050565b5f61068761068284610637565b61061d565b9050828152602081018484840111156106a3576106a26105ab565b5b6106ae848285610667565b509392505050565b5f82601f8301126106ca576106c96105a7565b5b81356106da848260208601610675565b91505092915050565b5f819050919050565b6106f5816106e3565b81146106ff575f5ffd5b50565b5f81359050610710816106ec565b92915050565b5f5f5f6060848603121561072d5761072c61059f565b5b5f84013567ffffffffffffffff81111561074a576107496105a3565b5b610756868287016106b6565b935050602084013567ffffffffffffffff811115610777576107766105a3565b5b610783868287016106b6565b925050604061079486828701610702565b9150509250925092565b5f81519050919050565b5f82825260208201905092915050565b5f819050602082019050919050565b5f73ffffffffffffffffffffffffffffffffffffffff82169050919050565b5f6107f0826107c7565b9050919050565b610800816107e6565b82525050565b5f81519050919050565b5f82825260208201905092915050565b8281835e5f83830152505050565b5f61083882610806565b6108428185610810565b9350610852818560208601610820565b61085b816105af565b840191505092915050565b61086f816106e3565b82525050565b5f608083015f83015161088a5f8601826107f7565b50602083015184820360208601526108a2828261082e565b915050604083015184820360408601526108bc828261082e565b91505060608301516108d16060860182610866565b508091505092915050565b5f6108e78383610875565b905092915050565b5f602082019050919050565b5f6109058261079e565b61090f81856107a8565b935083602082028501610921856107b8565b805f5b8581101561095c578484038952815161093d85826108dc565b9450610948836108ef565b925060208a01995050600181019050610924565b50829750879550505050505092915050565b5f6020820190508181035f83015261098681846108fb565b905092915050565b610997816107e6565b81146109a1575f5ffd5b50565b5f813590506109b28161098e565b92915050565b5f5f604083850312156109ce576109cd61059f565b5b5f6109db858286016109a4565b92505060206109ec85828601610702565b9150509250929050565b6109ff816107e6565b82525050565b5f82825260208201905092915050565b5f610a1f82610806565b610a298185610a05565b9350610a39818560208601610820565b610a42816105af565b840191505092915050565b610a56816106e3565b82525050565b5f608082019050610a6f5f8301876109f6565b8181036020830152610a818186610a15565b90508181036040830152610a958185610a15565b9050610aa46060830184610a4d565b95945050505050565b7f4e487b71000000000000000000000000000000000000000000000000000000005f52602260045260245ffd5b5f6002820490506001821680610af157607f821691505b602082108103610b0457610b03610aad565b5b50919050565b5f819050815f5260205f209050919050565b5f6020601f8301049050919050565b5f82821b905092915050565b5f60088302610b667fffffffffffffffffffffffffffffffffffffffffffffffffffffffffffffffff82610b2b565b610b708683610b2b565b95508019841693508086168417925050509392505050565b5f819050919050565b5f610bab610ba6610ba1846106e3565b610b88565b6106e3565b9050919050565b5f819050919050565b610bc483610b91565b610bd8610bd082610bb2565b848454610b37565b825550505050565b5f5f905090565b610bef610be0565b610bfa818484610bbb565b505050565b5b81811015610c1d57610c125f82610be7565b600181019050610c00565b5050565b601f821115610c6257610c3381610b0a565b610c3c84610b1c565b81016020851015610c4b578190505b610c5f610c5785610b1c565b830182610bff565b50505b505050565b5f82821c905092915050565b5f610c825f1984600802610c67565b1980831691505092915050565b5f610c9a8383610c73565b9150826002028217905092915050565b610cb382610806565b67ffffffffffffffff811115610ccc57610ccb6105bf565b5b610cd68254610ada565b610ce1828285610c21565b5f60209050601f831160018114610d12575f8415610d00578287015190505b610d0a8582610c8f565b865550610d71565b601f198416610d2086610b0a565b5f5b82811015610d4757848901518255600182019150602085019450602081019050610d22565b86831015610d645784890151610d60601f891682610c73565b8355505b6001600288020188555050505b50505050505056fe608060405234801561000f575f5ffd5b50604051611bd4380380611bd483398181016040528101906100319190610512565b8282816003908161004291906107b5565b50806004908161005291906107b5565b5050506100898461006761009260201b60201c565b600a61007391906109ec565b8361007e9190610a36565b61009a60201b60201c565b50505050610b2f565b5f6012905090565b5f73ffffffffffffffffffffffffffffffffffffffff168273ffffffffffffffffffffffffffffffffffffffff160361010a575f6040517fec442f050000000000000000000000000000000000000000000000000000000081526004016101019190610a86565b60405180910390fd5b61011b5f838361011f60201b60201c565b5050565b5f73ffffffffffffffffffffffffffffffffffffffff168373ffffffffffffffffffffffffffffffffffffffff160361016f578060025f8282546101639190610a9f565b9250508190555061023d565b5f5f5f8573ffffffffffffffffffffffffffffffffffffffff1673ffffffffffffffffffffffffffffffffffffffff1681526020019081526020015f20549050818110156101f8578381836040517fe450d38c0000000000000000000000000000000000000000000000000000000081526004016101ef93929190610ae1565b60405180910390fd5b8181035f5f8673ffffffffffffffffffffffffffffffffffffffff1673ffffffffffffffffffffffffffffffffffffffff1681526020019081526020015f2081905550505b5f73ffffffffffffffffffffffffffffffffffffffff168273ffffffffffffffffffffffffffffffffffffffff1603610284578060025f82825403925050819055506102ce565b805f5f8473ffffffffffffffffffffffffffffffffffffffff1673ffffffffffffffffffffffffffffffffffffffff1681526020019081526020015f205f82825401925050819055505b8173ffffffffffffffffffffffffffffffffffffffff168373ffffffffffffffffffffffffffffffffffffffff167fddf252ad1be2c89b69c2b068fc378daa952ba7f163c4a11628f55a4df523b3ef8360405161032b9190610b16565b60405180910390a3505050565b5f604051905090565b5f5ffd5b5f5ffd5b5f73ffffffffffffffffffffffffffffffffffffffff82169050919050565b5f61037282610349565b9050919050565b61038281610368565b811461038c575f5ffd5b50565b5f8151905061039d81610379565b92915050565b5f5ffd5b5f5ffd5b5f601f19601f8301169050919050565b7f4e487b71000000000000000000000000000000000000000000000000000000005f52604160045260245ffd5b6103f1826103ab565b810181811067ffffffffffffffff821117156104105761040f6103bb565b5b80604052505050565b5f610422610338565b905061042e82826103e8565b919050565b5f67ffffffffffffffff82111561044d5761044c6103bb565b5b610456826103ab565b9050602081019050919050565b8281835e5f83830152505050565b5f61048361047e84610433565b610419565b90508281526020810184848401111561049f5761049e6103a7565b5b6104aa848285610463565b509392505050565b5f82601f8301126104c6576104c56103a3565b5b81516104d6848260208601610471565b91505092915050565b5f819050919050565b6104f1816104df565b81146104fb575f5ffd5b50565b5f8151905061050c816104e8565b92915050565b5f5f5f5f6080858703121561052a57610529610341565b5b5f6105378782880161038f565b945050602085015167ffffffffffffffff81111561055857610557610345565b5b610564878288016104b2565b935050604085015167ffffffffffffffff81111561058557610584610345565b5b610591878288016104b2565b92505060606105a2878288016104fe565b91505092959194509250565b5f81519050919050565b7f4e487b71000000000000000000000000000000000000000000000000000000005f52602260045260245ffd5b5f60028204905060018216806105fc57607f821691505b60208210810361060f5761060e6105b8565b5b50919050565b5f819050815f5260205f209050919050565b5f6020601f8301049050919050565b5f82821b905092915050565b5f600883026106717fffffffffffffffffffffffffffffffffffffffffffffffffffffffffffffffff82610636565b61067b8683610636565b95508019841693508086168417925050509392505050565b5f819050919050565b5f6106b66106b16106ac846104df565b610693565b6104df565b9050919050565b5f819050919050565b6106cf8361069c565b6106e36106db826106bd565b848454610642565b825550505050565b5f5f905090565b6106fa6106eb565b6107058184846106c6565b505050565b5b818110156107285761071d5f826106f2565b60018101905061070b565b5050565b601f82111561076d5761073e81610615565b61074784610627565b81016020851015610756578190505b61076a61076285610627565b83018261070a565b50505b505050565b5f82821c905092915050565b5f61078d5f1984600802610772565b1980831691505092915050565b5f6107a5838361077e565b9150826002028217905092915050565b6107be826105ae565b67ffffffffffffffff8111156107d7576107d66103bb565b5b6107e182546105e5565b6107ec82828561072c565b5f60209050601f83116001811461081d575f841561080b578287015190505b610815858261079a565b86555061087c565b601f19841661082b86610615565b5f5b828110156108525784890151825560018201915060208501945060208101905061082d565b8683101561086f578489015161086b601f89168261077e565b8355505b6001600288020188555050505b505050505050565b7f4e487b71000000000000000000000000000000000000000000000000000000005f52601160045260245ffd5b5f8160011c9050919050565b5f5f8291508390505b6001851115610906578086048111156108e2576108e1610884565b5b60018516156108f15780820291505b80810290506108ff856108b1565b94506108c6565b94509492505050565b5f8261091e57600190506109d9565b8161092b575f90506109d9565b8160018114610941576002811461094b5761097a565b60019150506109d9565b60ff84111561095d5761095c610884565b5b8360020a91508482111561097457610973610884565b5b506109d9565b5060208310610133831016604e8410600b84101617156109af5782820a9050838111156109aa576109a9610884565b5b6109d9565b6109bc84848460016108bd565b925090508184048111156109d3576109d2610884565b5b81810290505b9392505050565b5f60ff82169050919050565b5f6109f6826104df565b9150610a01836109e0565b9250610a2e7fffffffffffffffffffffffffffffffffffffffffffffffffffffffffffffffff848461090f565b905092915050565b5f610a40826104df565b9150610a4b836104df565b9250828202610a59816104df565b91508282048414831517610a7057610a6f610884565b5b5092915050565b610a8081610368565b82525050565b5f602082019050610a995f830184610a77565b92915050565b5f610aa9826104df565b9150610ab4836104df565b9250828201905080821115610acc57610acb610884565b5b92915050565b610adb816104df565b82525050565b5f606082019050610af45f830186610a77565b610b016020830185610ad2565b610b0e6040830184610ad2565b949350505050565b5f602082019050610b295f830184610ad2565b92915050565b61109880610b3c5f395ff3fe608060405234801561000f575f5ffd5b506004361061009c575f3560e01c80635791589711610064578063579158971461015a57806370a082311461017657806395d89b41146101a6578063a9059cbb146101c4578063dd62ed3e146101f45761009c565b806306fdde03146100a0578063095ea7b3146100be57806318160ddd146100ee57806323b872dd1461010c578063313ce5671461013c575b5f5ffd5b6100a8610224565b6040516100b59190610b2c565b60405180910390f35b6100d860048036038101906100d39190610bdd565b6102b4565b6040516100e59190610c35565b60405180910390f35b6100f66102d6565b6040516101039190610c5d565b60405180910390f35b61012660048036038101906101219190610c76565b6102df565b6040516101339190610c35565b60405180910390f35b61014461030d565b6040516101519190610ce1565b60405180910390f35b610174600480360381019061016f9190610cfa565b610315565b005b610190600480360381019061018b9190610d25565b610340565b60405161019d9190610c5d565b60405180910390f35b6101ae610385565b6040516101bb9190610b2c565b60405180910390f35b6101de60048036038101906101d99190610bdd565b610415565b6040516101eb9190610c35565b60405180910390f35b61020e60048036038101906102099190610d50565b610437565b60405161021b9190610c5d565b60405180910390f35b60606003805461023390610dbb565b80601f016020809104026020016040519081016040528092919081815260200182805461025f90610dbb565b80156102aa5780601f10610281576101008083540402835291602001916102aa565b820191905f5260205f20905b81548152906001019060200180831161028d57829003601f168201915b5050505050905090565b5f5f6102be6104b9565b90506102cb8185856104c0565b600191505092915050565b5f600254905090565b5f5f6102e96104b9565b90506102f68582856104d2565b610301858585610565565b60019150509392505050565b5f6012905090565b61033d3361032161030d565b600a61032d9190610f47565b836103389190610f91565b610655565b50565b5f5f5f8373ffffffffffffffffffffffffffffffffffffffff1673ffffffffffffffffffffffffffffffffffffffff1681526020019081526020015f20549050919050565b60606004805461039490610dbb565b80601f01602080910402602001604051908101604052809291908181526020018280546103c090610dbb565b801561040b5780601f106103e25761010080835404028352916020019161040b565b820191905f5260205f20905b8154815290600101906020018083116103ee57829003601f168201915b5050505050905090565b5f5f61041f6104b9565b905061042c818585610565565b600191505092915050565b5f60015f8473ffffffffffffffffffffffffffffffffffffffff1673ffffffffffffffffffffffffffffffffffffffff1681526020019081526020015f205f8373ffffffffffffffffffffffffffffffffffffffff1673ffffffffffffffffffffffffffffffffffffffff1681526020019081526020015f2054905092915050565b5f33905090565b6104cd83838360016106d4565b505050565b5f6104dd8484610437565b90507fffffffffffffffffffffffffffffffffffffffffffffffffffffffffffffffff81101561055f5781811015610550578281836040517ffb8f41b200000000000000000000000000000000000000000000000000000000815260040161054793929190610fe1565b60405180910390fd5b61055e84848484035f6106d4565b5b50505050565b5f73ffffffffffffffffffffffffffffffffffffffff168373ffffffffffffffffffffffffffffffffffffffff16036105d5575f6040517f96c6fd1e0000000000000000000000000000000000000000000000000000000081526004016105cc9190611016565b60405180910390fd5b5f73ffffffffffffffffffffffffffffffffffffffff168273ffffffffffffffffffffffffffffffffffffffff1603610645575f6040517fec442f0500000000000000000000000000000000000000000000000000000000815260040161063c9190611016565b60405180910390fd5b6106508383836108a3565b505050565b5f73ffffffffffffffffffffffffffffffffffffffff168273ffffffffffffffffffffffffffffffffffffffff16036106c5575f6040517fec442f050000000000000000000000000000000000000000000000000000000081526004016106bc9190611016565b60405180910390fd5b6106d05f83836108a3565b5050565b5f73ffffffffffffffffffffffffffffffffffffffff168473ffffffffffffffffffffffffffffffffffffffff1603610744575f6040517fe602df0500000000000000000000000000000000000000000000000000000000815260040161073b9190611016565b60405180910390fd5b5f73ffffffffffffffffffffffffffffffffffffffff168373ffffffffffffffffffffffffffffffffffffffff16036107b4575f6040517f94280d620000000000000000000000000000000000000000000000000000000081526004016107ab9190611016565b60405180910390fd5b8160015f8673ffffffffffffffffffffffffffffffffffffffff1673ffffffffffffffffffffffffffffffffffffffff1681526020019081526020015f205f8573ffffffffffffffffffffffffffffffffffffffff1673ffffffffffffffffffffffffffffffffffffffff1681526020019081526020015f2081905550801561089d578273ffffffffffffffffffffffffffffffffffffffff168473ffffffffffffffffffffffffffffffffffffffff167f8c5be1e5ebec7d5bd14f71427d1e84f3dd0314c0f7b2291e5b200ac8c7c3b925846040516108949190610c5d565b60405180910390a35b50505050565b5f73ffffffffffffffffffffffffffffffffffffffff168373ffffffffffffffffffffffffffffffffffffffff16036108f3578060025f8282546108e7919061102f565b925050819055506109c1565b5f5f5f8573ffffffffffffffffffffffffffffffffffffffff1673ffffffffffffffffffffffffffffffffffffffff1681526020019081526020015f205490508181101561097c578381836040517fe450d38c00000000000000000000000000000000000000000000000000000000815260040161097393929190610fe1565b60405180910390fd5b8181035f5f8673ffffffffffffffffffffffffffffffffffffffff1673ffffffffffffffffffffffffffffffffffffffff1681526020019081526020015f2081905550505b5f73ffffffffffffffffffffffffffffffffffffffff168273ffffffffffffffffffffffffffffffffffffffff1603610a08578060025f8282540392505081905550610a52565b805f5f8473ffffffffffffffffffffffffffffffffffffffff1673ffffffffffffffffffffffffffffffffffffffff1681526020019081526020015f205f82825401925050819055505b8173ffffffffffffffffffffffffffffffffffffffff168373ffffffffffffffffffffffffffffffffffffffff167fddf252ad1be2c89b69c2b068fc378daa952ba7f163c4a11628f55a4df523b3ef83604051610aaf9190610c5d565b60405180910390a3505050565b5f81519050919050565b5f82825260208201905092915050565b8281835e5f83830152505050565b5f601f19601f8301169050919050565b5f610afe82610abc565b610b088185610ac6565b9350610b18818560208601610ad6565b610b2181610ae4565b840191505092915050565b5f6020820190508181035f830152610b448184610af4565b905092915050565b5f5ffd5b5f73ffffffffffffffffffffffffffffffffffffffff82169050919050565b5f610b7982610b50565b9050919050565b610b8981610b6f565b8114610b93575f5ffd5b50565b5f81359050610ba481610b80565b92915050565b5f819050919050565b610bbc81610baa565b8114610bc6575f5ffd5b50565b5f81359050610bd781610bb3565b92915050565b5f5f60408385031215610bf357610bf2610b4c565b5b5f610c0085828601610b96565b9250506020610c1185828601610bc9565b9150509250929050565b5f8115159050919050565b610c2f81610c1b565b82525050565b5f602082019050610c485f830184610c26565b92915050565b610c5781610baa565b82525050565b5f602082019050610c705f830184610c4e565b92915050565b5f5f5f60608486031215610c8d57610c8c610b4c565b5b5f610c9a86828701610b96565b9350506020610cab86828701610b96565b9250506040610cbc86828701610bc9565b9150509250925092565b5f60ff82169050919050565b610cdb81610cc6565b82525050565b5f602082019050610cf45f830184610cd2565b92915050565b5f60208284031215610d0f57610d0e610b4c565b5b5f610d1c84828501610bc9565b91505092915050565b5f60208284031215610d3a57610d39610b4c565b5b5f610d4784828501610b96565b91505092915050565b5f5f60408385031215610d6657610d65610b4c565b5b5f610d7385828601610b96565b9250506020610d8485828601610b96565b9150509250929050565b7f4e487b71000000000000000000000000000000000000000000000000000000005f52602260045260245ffd5b5f6002820490506001821680610dd257607f821691505b602082108103610de557610de4610d8e565b5b50919050565b7f4e487b71000000000000000000000000000000000000000000000000000000005f52601160045260245ffd5b5f8160011c9050919050565b5f5f8291508390505b6001851115610e6d57808604811115610e4957610e48610deb565b5b6001851615610e585780820291505b8081029050610e6685610e18565b9450610e2d565b94509492505050565b5f82610e855760019050610f40565b81610e92575f9050610f40565b8160018114610ea85760028114610eb257610ee1565b6001915050610f40565b60ff841115610ec457610ec3610deb565b5b8360020a915084821115610edb57610eda610deb565b5b50610f40565b5060208310610133831016604e8410600b8410161715610f165782820a905083811115610f1157610f10610deb565b5b610f40565b610f238484846001610e24565b92509050818404811115610f3a57610f39610deb565b5b81810290505b9392505050565b5f610f5182610baa565b9150610f5c83610cc6565b9250610f897fffffffffffffffffffffffffffffffffffffffffffffffffffffffffffffffff8484610e76565b905092915050565b5f610f9b82610baa565b9150610fa683610baa565b9250828202610fb481610baa565b91508282048414831517610fcb57610fca610deb565b5b5092915050565b610fdb81610b6f565b82525050565b5f606082019050610ff45f830186610fd2565b6110016020830185610c4e565b61100e6040830184610c4e565b949350505050565b5f6020820190506110295f830184610fd2565b92915050565b5f61103982610baa565b915061104483610baa565b925082820190508082111561105c5761105b610deb565b5b9291505056fea2646970667358221220a61dd3bcbfbe7bdfc8fab59115bd0680f5d3e1b352b680530d607352e7c4d25164736f6c634300081e0033a2646970667358221220a7700be0dfc20a046e8144799646412e3b245eb6a28405e157ffbc332d709ad164736f6c634300081e0033","linkReferences":{}},"methodIdentifiers":{"createToken(string,string,uint256)":"5b060530","getMyTokens()":"5b3b136a","userTokens(address,uint256)":"f9f411d8"},"id":25}