{
    "abi": [
        {
            "type": "function",
            "name": "createToken",
            "inputs": [
                {
                    "name": "name",
                    "type": "string",
                    "internalType": "string"
                },
                {
                    "name": "symbol",
                    "type": "string",
                    "internalType": "string"
                },
                {
                    "name": "supply",
                    "type": "uint256",
                    "internalType": "uint256"
                }
            ],
            "outputs": [],
            "stateMutability": "nonpayable"
        },
        {
            "type": "function",
            "name": "getMyTokens",
            "inputs": [],
            "outputs": [
                {
                    "name": "",
                    "type": "tuple[]",
                    "internalType": "struct TokenFactory.TokenInfo[]",
                    "components": [
                        {
                            "name": "tokenAddress",
                            "type": "address",
                            "internalType": "address"
                        },
                        {
                            "name": "name",
                            "type": "string",
                            "internalType": "string"
                        },
                        {
                            "name": "symbol",
                            "type": "string",
                            "internalType": "string"
                        },
                        {
                            "name": "supply",
                            "type": "uint256",
                            "internalType": "uint256"
                        }
                    ]
                }
            ],
            "stateMutability": "view"
        },
        {
            "type": "function",
            "name": "userTokens",
            "inputs": [
                {
                    "name": "",
                    "type": "address",
                    "internalType": "address"
                },
                {
                    "name": "",
                    "type": "uint256",
                    "internalType": "uint256"
                }
            ],
            "outputs": [
                {
                    "name": "tokenAddress",
                    "type": "address",
                    "internalType": "address"
                },
                {
                    "name": "name",
                    "type": "string",
                    "internalType": "string"
                },
                {
                    "name": "symbol",
                    "type": "string",
                    "internalType": "string"
                },
                {
                    "name": "supply",
                    "type": "uint256",
                    "internalType": "uint256"
                }
            ],
            "stateMutability": "view"
        }
    ],
    "bytecode": {
        "object": "0x6080604052348015600e575f5ffd5b506129858061001c5f395ff3fe608060405234801561000f575f5ffd5b506004361061003f575f3560e01c80635b060530146100435780635b3b136a1461005f578063f9f411d81461007d575b5f5ffd5b61005d60048036038101906100589190610714565b6100b0565b005b610067610203565b604051610074919061096c565b60405180910390f35b610097600480360381019061009291906109b6565b610417565b6040516100a79493929190610a5a565b60405180910390f35b5f8383836040516100c090610587565b6100cc93929190610aab565b604051809103905ff0801580156100e5573d5f5f3e3d5ffd5b5090505f5f3373ffffffffffffffffffffffffffffffffffffffff1673ffffffffffffffffffffffffffffffffffffffff1681526020019081526020015f2060405180608001604052808373ffffffffffffffffffffffffffffffffffffffff16815260200186815260200185815260200184815250908060018154018082558091505060019003905f5260205f2090600402015f909190919091505f820151815f015f6101000a81548173ffffffffffffffffffffffffffffffffffffffff021916908373ffffffffffffffffffffffffffffffffffffffff16021790555060208201518160010190816101da9190610ceb565b5060408201518160020190816101f09190610ceb565b5060608201518160030155505050505050565b60605f5f3373ffffffffffffffffffffffffffffffffffffffff1673ffffffffffffffffffffffffffffffffffffffff1681526020019081526020015f20805480602002602001604051908101604052809291908181526020015f905b8282101561040e578382905f5260205f2090600402016040518060800160405290815f82015f9054906101000a900473ffffffffffffffffffffffffffffffffffffffff1673ffffffffffffffffffffffffffffffffffffffff1673ffffffffffffffffffffffffffffffffffffffff1681526020016001820180546102e590610b1b565b80601f016020809104026020016040519081016040528092919081815260200182805461031190610b1b565b801561035c5780601f106103335761010080835404028352916020019161035c565b820191905f5260205f20905b81548152906001019060200180831161033f57829003601f168201915b5050505050815260200160028201805461037590610b1b565b80601f01602080910402602001604051908101604052809291908181526020018280546103a190610b1b565b80156103ec5780601f106103c3576101008083540402835291602001916103ec565b820191905f5260205f20905b8154815290600101906020018083116103cf57829003601f168201915b5050505050815260200160038201548152505081526020019060010190610260565b50505050905090565b5f602052815f5260405f20818154811061042f575f80fd5b905f5260205f2090600402015f9150915050805f015f9054906101000a900473ffffffffffffffffffffffffffffffffffffffff169080600101805461047490610b1b565b80601f01602080910402602001604051908101604052809291908181526020018280546104a090610b1b565b80156104eb5780601f106104c2576101008083540402835291602001916104eb565b820191905f5260205f20905b8154815290600101906020018083116104ce57829003601f168201915b50505050509080600201805461050090610b1b565b80601f016020809104026020016040519081016040528092919081815260200182805461052c90610b1b565b80156105775780601f1061054e57610100808354040283529160200191610577565b820191905f5260205f20905b81548152906001019060200180831161055a57829003601f168201915b5050505050908060030154905084565b611b9580610dbb83390190565b5f604051905090565b5f5ffd5b5f5ffd5b5f5ffd5b5f5ffd5b5f601f19601f8301169050919050565b7f4e487b71000000000000000000000000000000000000000000000000000000005f52604160045260245ffd5b6105f3826105ad565b810181811067ffffffffffffffff82111715610612576106116105bd565b5b80604052505050565b5f610624610594565b905061063082826105ea565b919050565b5f67ffffffffffffffff82111561064f5761064e6105bd565b5b610658826105ad565b9050602081019050919050565b828183375f83830152505050565b5f61068561068084610635565b61061b565b9050828152602081018484840111156106a1576106a06105a9565b5b6106ac848285610665565b509392505050565b5f82601f8301126106c8576106c76105a5565b5b81356106d8848260208601610673565b91505092915050565b5f819050919050565b6106f3816106e1565b81146106fd575f5ffd5b50565b5f8135905061070e816106ea565b92915050565b5f5f5f6060848603121561072b5761072a61059d565b5b5f84013567ffffffffffffffff811115610748576107476105a1565b5b610754868287016106b4565b935050602084013567ffffffffffffffff811115610775576107746105a1565b5b610781868287016106b4565b925050604061079286828701610700565b9150509250925092565b5f81519050919050565b5f82825260208201905092915050565b5f819050602082019050919050565b5f73ffffffffffffffffffffffffffffffffffffffff82169050919050565b5f6107ee826107c5565b9050919050565b6107fe816107e4565b82525050565b5f81519050919050565b5f82825260208201905092915050565b8281835e5f83830152505050565b5f61083682610804565b610840818561080e565b935061085081856020860161081e565b610859816105ad565b840191505092915050565b61086d816106e1565b82525050565b5f608083015f8301516108885f8601826107f5565b50602083015184820360208601526108a0828261082c565b915050604083015184820360408601526108ba828261082c565b91505060608301516108cf6060860182610864565b508091505092915050565b5f6108e58383610873565b905092915050565b5f602082019050919050565b5f6109038261079c565b61090d81856107a6565b93508360208202850161091f856107b6565b805f5b8581101561095a578484038952815161093b85826108da565b9450610946836108ed565b925060208a01995050600181019050610922565b50829750879550505050505092915050565b5f6020820190508181035f83015261098481846108f9565b905092915050565b610995816107e4565b811461099f575f5ffd5b50565b5f813590506109b08161098c565b92915050565b5f5f604083850312156109cc576109cb61059d565b5b5f6109d9858286016109a2565b92505060206109ea85828601610700565b9150509250929050565b6109fd816107e4565b82525050565b5f82825260208201905092915050565b5f610a1d82610804565b610a278185610a03565b9350610a3781856020860161081e565b610a40816105ad565b840191505092915050565b610a54816106e1565b82525050565b5f608082019050610a6d5f8301876109f4565b8181036020830152610a7f8186610a13565b90508181036040830152610a938185610a13565b9050610aa26060830184610a4b565b95945050505050565b5f6060820190508181035f830152610ac38186610a13565b90508181036020830152610ad78185610a13565b9050610ae66040830184610a4b565b949350505050565b7f4e487b71000000000000000000000000000000000000000000000000000000005f52602260045260245ffd5b5f6002820490506001821680610b3257607f821691505b602082108103610b4557610b44610aee565b5b50919050565b5f819050815f5260205f209050919050565b5f6020601f8301049050919050565b5f82821b905092915050565b5f60088302610ba77fffffffffffffffffffffffffffffffffffffffffffffffffffffffffffffffff82610b6c565b610bb18683610b6c565b95508019841693508086168417925050509392505050565b5f819050919050565b5f610bec610be7610be2846106e1565b610bc9565b6106e1565b9050919050565b5f819050919050565b610c0583610bd2565b610c19610c1182610bf3565b848454610b78565b825550505050565b5f5f905090565b610c30610c21565b610c3b818484610bfc565b505050565b5b81811015610c5e57610c535f82610c28565b600181019050610c41565b5050565b601f821115610ca357610c7481610b4b565b610c7d84610b5d565b81016020851015610c8c578190505b610ca0610c9885610b5d565b830182610c40565b50505b505050565b5f82821c905092915050565b5f610cc35f1984600802610ca8565b1980831691505092915050565b5f610cdb8383610cb4565b9150826002028217905092915050565b610cf482610804565b67ffffffffffffffff811115610d0d57610d0c6105bd565b5b610d178254610b1b565b610d22828285610c62565b5f60209050601f831160018114610d53575f8415610d41578287015190505b610d4b8582610cd0565b865550610db2565b601f198416610d6186610b4b565b5f5b82811015610d8857848901518255600182019150602085019450602081019050610d63565b86831015610da55784890151610da1601f891682610cb4565b8355505b6001600288020188555050505b50505050505056fe608060405234801561000f575f5ffd5b50604051611b95380380611b95833981810160405281019061003191906104b7565b828281600390816100429190610746565b5080600490816100529190610746565b5050506100893361006761009160201b60201c565b600a610073919061097d565b8361007e91906109c7565b61009960201b60201c565b505050610af0565b5f6012905090565b5f73ffffffffffffffffffffffffffffffffffffffff168273ffffffffffffffffffffffffffffffffffffffff1603610109575f6040517fec442f050000000000000000000000000000000000000000000000000000000081526004016101009190610a47565b60405180910390fd5b61011a5f838361011e60201b60201c565b5050565b5f73ffffffffffffffffffffffffffffffffffffffff168373ffffffffffffffffffffffffffffffffffffffff160361016e578060025f8282546101629190610a60565b9250508190555061023c565b5f5f5f8573ffffffffffffffffffffffffffffffffffffffff1673ffffffffffffffffffffffffffffffffffffffff1681526020019081526020015f20549050818110156101f7578381836040517fe450d38c0000000000000000000000000000000000000000000000000000000081526004016101ee93929190610aa2565b60405180910390fd5b8181035f5f8673ffffffffffffffffffffffffffffffffffffffff1673ffffffffffffffffffffffffffffffffffffffff1681526020019081526020015f2081905550505b5f73ffffffffffffffffffffffffffffffffffffffff168273ffffffffffffffffffffffffffffffffffffffff1603610283578060025f82825403925050819055506102cd565b805f5f8473ffffffffffffffffffffffffffffffffffffffff1673ffffffffffffffffffffffffffffffffffffffff1681526020019081526020015f205f82825401925050819055505b8173ffffffffffffffffffffffffffffffffffffffff168373ffffffffffffffffffffffffffffffffffffffff167fddf252ad1be2c89b69c2b068fc378daa952ba7f163c4a11628f55a4df523b3ef8360405161032a9190610ad7565b60405180910390a3505050565b5f604051905090565b5f5ffd5b5f5ffd5b5f5ffd5b5f5ffd5b5f601f19601f8301169050919050565b7f4e487b71000000000000000000000000000000000000000000000000000000005f52604160045260245ffd5b61039682610350565b810181811067ffffffffffffffff821117156103b5576103b4610360565b5b80604052505050565b5f6103c7610337565b90506103d3828261038d565b919050565b5f67ffffffffffffffff8211156103f2576103f1610360565b5b6103fb82610350565b9050602081019050919050565b8281835e5f83830152505050565b5f610428610423846103d8565b6103be565b9050828152602081018484840111156104445761044361034c565b5b61044f848285610408565b509392505050565b5f82601f83011261046b5761046a610348565b5b815161047b848260208601610416565b91505092915050565b5f819050919050565b61049681610484565b81146104a0575f5ffd5b50565b5f815190506104b18161048d565b92915050565b5f5f5f606084860312156104ce576104cd610340565b5b5f84015167ffffffffffffffff8111156104eb576104ea610344565b5b6104f786828701610457565b935050602084015167ffffffffffffffff81111561051857610517610344565b5b61052486828701610457565b9250506040610535868287016104a3565b9150509250925092565b5f81519050919050565b7f4e487b71000000000000000000000000000000000000000000000000000000005f52602260045260245ffd5b5f600282049050600182168061058d57607f821691505b6020821081036105a05761059f610549565b5b50919050565b5f819050815f5260205f209050919050565b5f6020601f8301049050919050565b5f82821b905092915050565b5f600883026106027fffffffffffffffffffffffffffffffffffffffffffffffffffffffffffffffff826105c7565b61060c86836105c7565b95508019841693508086168417925050509392505050565b5f819050919050565b5f61064761064261063d84610484565b610624565b610484565b9050919050565b5f819050919050565b6106608361062d565b61067461066c8261064e565b8484546105d3565b825550505050565b5f5f905090565b61068b61067c565b610696818484610657565b505050565b5b818110156106b9576106ae5f82610683565b60018101905061069c565b5050565b601f8211156106fe576106cf816105a6565b6106d8846105b8565b810160208510156106e7578190505b6106fb6106f3856105b8565b83018261069b565b50505b505050565b5f82821c905092915050565b5f61071e5f1984600802610703565b1980831691505092915050565b5f610736838361070f565b9150826002028217905092915050565b61074f8261053f565b67ffffffffffffffff81111561076857610767610360565b5b6107728254610576565b61077d8282856106bd565b5f60209050601f8311600181146107ae575f841561079c578287015190505b6107a6858261072b565b86555061080d565b601f1984166107bc866105a6565b5f5b828110156107e3578489015182556001820191506020850194506020810190506107be565b8683101561080057848901516107fc601f89168261070f565b8355505b6001600288020188555050505b505050505050565b7f4e487b71000000000000000000000000000000000000000000000000000000005f52601160045260245ffd5b5f8160011c9050919050565b5f5f8291508390505b60018511156108975780860481111561087357610872610815565b5b60018516156108825780820291505b808102905061089085610842565b9450610857565b94509492505050565b5f826108af576001905061096a565b816108bc575f905061096a565b81600181146108d257600281146108dc5761090b565b600191505061096a565b60ff8411156108ee576108ed610815565b5b8360020a91508482111561090557610904610815565b5b5061096a565b5060208310610133831016604e8410600b84101617156109405782820a90508381111561093b5761093a610815565b5b61096a565b61094d848484600161084e565b9250905081840481111561096457610963610815565b5b81810290505b9392505050565b5f60ff82169050919050565b5f61098782610484565b915061099283610971565b92506109bf7fffffffffffffffffffffffffffffffffffffffffffffffffffffffffffffffff84846108a0565b905092915050565b5f6109d182610484565b91506109dc83610484565b92508282026109ea81610484565b91508282048414831517610a0157610a00610815565b5b5092915050565b5f73ffffffffffffffffffffffffffffffffffffffff82169050919050565b5f610a3182610a08565b9050919050565b610a4181610a27565b82525050565b5f602082019050610a5a5f830184610a38565b92915050565b5f610a6a82610484565b9150610a7583610484565b9250828201905080821115610a8d57610a8c610815565b5b92915050565b610a9c81610484565b82525050565b5f606082019050610ab55f830186610a38565b610ac26020830185610a93565b610acf6040830184610a93565b949350505050565b5f602082019050610aea5f830184610a93565b92915050565b61109880610afd5f395ff3fe608060405234801561000f575f5ffd5b506004361061009c575f3560e01c80635791589711610064578063579158971461015a57806370a082311461017657806395d89b41146101a6578063a9059cbb146101c4578063dd62ed3e146101f45761009c565b806306fdde03146100a0578063095ea7b3146100be57806318160ddd146100ee57806323b872dd1461010c578063313ce5671461013c575b5f5ffd5b6100a8610224565b6040516100b59190610b2c565b60405180910390f35b6100d860048036038101906100d39190610bdd565b6102b4565b6040516100e59190610c35565b60405180910390f35b6100f66102d6565b6040516101039190610c5d565b60405180910390f35b61012660048036038101906101219190610c76565b6102df565b6040516101339190610c35565b60405180910390f35b61014461030d565b6040516101519190610ce1565b60405180910390f35b610174600480360381019061016f9190610cfa565b610315565b005b610190600480360381019061018b9190610d25565b610340565b60405161019d9190610c5d565b60405180910390f35b6101ae610385565b6040516101bb9190610b2c565b60405180910390f35b6101de60048036038101906101d99190610bdd565b610415565b6040516101eb9190610c35565b60405180910390f35b61020e60048036038101906102099190610d50565b610437565b60405161021b9190610c5d565b60405180910390f35b60606003805461023390610dbb565b80601f016020809104026020016040519081016040528092919081815260200182805461025f90610dbb565b80156102aa5780601f10610281576101008083540402835291602001916102aa565b820191905f5260205f20905b81548152906001019060200180831161028d57829003601f168201915b5050505050905090565b5f5f6102be6104b9565b90506102cb8185856104c0565b600191505092915050565b5f600254905090565b5f5f6102e96104b9565b90506102f68582856104d2565b610301858585610565565b60019150509392505050565b5f6012905090565b61033d3361032161030d565b600a61032d9190610f47565b836103389190610f91565b610655565b50565b5f5f5f8373ffffffffffffffffffffffffffffffffffffffff1673ffffffffffffffffffffffffffffffffffffffff1681526020019081526020015f20549050919050565b60606004805461039490610dbb565b80601f01602080910402602001604051908101604052809291908181526020018280546103c090610dbb565b801561040b5780601f106103e25761010080835404028352916020019161040b565b820191905f5260205f20905b8154815290600101906020018083116103ee57829003601f168201915b5050505050905090565b5f5f61041f6104b9565b905061042c818585610565565b600191505092915050565b5f60015f8473ffffffffffffffffffffffffffffffffffffffff1673ffffffffffffffffffffffffffffffffffffffff1681526020019081526020015f205f8373ffffffffffffffffffffffffffffffffffffffff1673ffffffffffffffffffffffffffffffffffffffff1681526020019081526020015f2054905092915050565b5f33905090565b6104cd83838360016106d4565b505050565b5f6104dd8484610437565b90507fffffffffffffffffffffffffffffffffffffffffffffffffffffffffffffffff81101561055f5781811015610550578281836040517ffb8f41b200000000000000000000000000000000000000000000000000000000815260040161054793929190610fe1565b60405180910390fd5b61055e84848484035f6106d4565b5b50505050565b5f73ffffffffffffffffffffffffffffffffffffffff168373ffffffffffffffffffffffffffffffffffffffff16036105d5575f6040517f96c6fd1e0000000000000000000000000000000000000000000000000000000081526004016105cc9190611016565b60405180910390fd5b5f73ffffffffffffffffffffffffffffffffffffffff168273ffffffffffffffffffffffffffffffffffffffff1603610645575f6040517fec442f0500000000000000000000000000000000000000000000000000000000815260040161063c9190611016565b60405180910390fd5b6106508383836108a3565b505050565b5f73ffffffffffffffffffffffffffffffffffffffff168273ffffffffffffffffffffffffffffffffffffffff16036106c5575f6040517fec442f050000000000000000000000000000000000000000000000000000000081526004016106bc9190611016565b60405180910390fd5b6106d05f83836108a3565b5050565b5f73ffffffffffffffffffffffffffffffffffffffff168473ffffffffffffffffffffffffffffffffffffffff1603610744575f6040517fe602df0500000000000000000000000000000000000000000000000000000000815260040161073b9190611016565b60405180910390fd5b5f73ffffffffffffffffffffffffffffffffffffffff168373ffffffffffffffffffffffffffffffffffffffff16036107b4575f6040517f94280d620000000000000000000000000000000000000000000000000000000081526004016107ab9190611016565b60405180910390fd5b8160015f8673ffffffffffffffffffffffffffffffffffffffff1673ffffffffffffffffffffffffffffffffffffffff1681526020019081526020015f205f8573ffffffffffffffffffffffffffffffffffffffff1673ffffffffffffffffffffffffffffffffffffffff1681526020019081526020015f2081905550801561089d578273ffffffffffffffffffffffffffffffffffffffff168473ffffffffffffffffffffffffffffffffffffffff167f8c5be1e5ebec7d5bd14f71427d1e84f3dd0314c0f7b2291e5b200ac8c7c3b925846040516108949190610c5d565b60405180910390a35b50505050565b5f73ffffffffffffffffffffffffffffffffffffffff168373ffffffffffffffffffffffffffffffffffffffff16036108f3578060025f8282546108e7919061102f565b925050819055506109c1565b5f5f5f8573ffffffffffffffffffffffffffffffffffffffff1673ffffffffffffffffffffffffffffffffffffffff1681526020019081526020015f205490508181101561097c578381836040517fe450d38c00000000000000000000000000000000000000000000000000000000815260040161097393929190610fe1565b60405180910390fd5b8181035f5f8673ffffffffffffffffffffffffffffffffffffffff1673ffffffffffffffffffffffffffffffffffffffff1681526020019081526020015f2081905550505b5f73ffffffffffffffffffffffffffffffffffffffff168273ffffffffffffffffffffffffffffffffffffffff1603610a08578060025f8282540392505081905550610a52565b805f5f8473ffffffffffffffffffffffffffffffffffffffff1673ffffffffffffffffffffffffffffffffffffffff1681526020019081526020015f205f82825401925050819055505b8173ffffffffffffffffffffffffffffffffffffffff168373ffffffffffffffffffffffffffffffffffffffff167fddf252ad1be2c89b69c2b068fc378daa952ba7f163c4a11628f55a4df523b3ef83604051610aaf9190610c5d565b60405180910390a3505050565b5f81519050919050565b5f82825260208201905092915050565b8281835e5f83830152505050565b5f601f19601f8301169050919050565b5f610afe82610abc565b610b088185610ac6565b9350610b18818560208601610ad6565b610b2181610ae4565b840191505092915050565b5f6020820190508181035f830152610b448184610af4565b905092915050565b5f5ffd5b5f73ffffffffffffffffffffffffffffffffffffffff82169050919050565b5f610b7982610b50565b9050919050565b610b8981610b6f565b8114610b93575f5ffd5b50565b5f81359050610ba481610b80565b92915050565b5f819050919050565b610bbc81610baa565b8114610bc6575f5ffd5b50565b5f81359050610bd781610bb3565b92915050565b5f5f60408385031215610bf357610bf2610b4c565b5b5f610c0085828601610b96565b9250506020610c1185828601610bc9565b9150509250929050565b5f8115159050919050565b610c2f81610c1b565b82525050565b5f602082019050610c485f830184610c26565b92915050565b610c5781610baa565b82525050565b5f602082019050610c705f830184610c4e565b92915050565b5f5f5f60608486031215610c8d57610c8c610b4c565b5b5f610c9a86828701610b96565b9350506020610cab86828701610b96565b9250506040610cbc86828701610bc9565b9150509250925092565b5f60ff82169050919050565b610cdb81610cc6565b82525050565b5f602082019050610cf45f830184610cd2565b92915050565b5f60208284031215610d0f57610d0e610b4c565b5b5f610d1c84828501610bc9565b91505092915050565b5f60208284031215610d3a57610d39610b4c565b5b5f610d4784828501610b96565b91505092915050565b5f5f60408385031215610d6657610d65610b4c565b5b5f610d7385828601610b96565b9250506020610d8485828601610b96565b9150509250929050565b7f4e487b71000000000000000000000000000000000000000000000000000000005f52602260045260245ffd5b5f6002820490506001821680610dd257607f821691505b602082108103610de557610de4610d8e565b5b50919050565b7f4e487b71000000000000000000000000000000000000000000000000000000005f52601160045260245ffd5b5f8160011c9050919050565b5f5f8291508390505b6001851115610e6d57808604811115610e4957610e48610deb565b5b6001851615610e585780820291505b8081029050610e6685610e18565b9450610e2d565b94509492505050565b5f82610e855760019050610f40565b81610e92575f9050610f40565b8160018114610ea85760028114610eb257610ee1565b6001915050610f40565b60ff841115610ec457610ec3610deb565b5b8360020a915084821115610edb57610eda610deb565b5b50610f40565b5060208310610133831016604e8410600b8410161715610f165782820a905083811115610f1157610f10610deb565b5b610f40565b610f238484846001610e24565b92509050818404811115610f3a57610f39610deb565b5b81810290505b9392505050565b5f610f5182610baa565b9150610f5c83610cc6565b9250610f897fffffffffffffffffffffffffffffffffffffffffffffffffffffffffffffffff8484610e76565b905092915050565b5f610f9b82610baa565b9150610fa683610baa565b9250828202610fb481610baa565b91508282048414831517610fcb57610fca610deb565b5b5092915050565b610fdb81610b6f565b82525050565b5f606082019050610ff45f830186610fd2565b6110016020830185610c4e565b61100e6040830184610c4e565b949350505050565b5f6020820190506110295f830184610fd2565b92915050565b5f61103982610baa565b915061104483610baa565b925082820190508082111561105c5761105b610deb565b5b9291505056fea26469706673582212201bce7cc30350bb920b1ed03525cb2c5a0404ef4aa1babbacdcb50738d7631f0b64736f6c634300081e0033a26469706673582212205035caad09b8f708404b4b5956885c7e35b1cae005650ba11b090c7f0e27374864736f6c634300081e0033",
        "linkReferences": {}
    },
    "methodIdentifiers": {
        "createToken(string,string,uint256)": "5b060530",
        "getMyTokens()": "5b3b136a",
        "userTokens(address,uint256)": "f9f411d8"
    },
    "id": 6
}